:020000040800F2
:10000000041B0020110100080D0100080D0100086B
:100010000D0100080D0100080D010008000000009E
:100020000000000000000000000000000D010008BA
:100030000D010008000000000D0100080D0100087E
:100040000D0100080D0100080D0100080D01000858
:100050000D0100080D0100080D0100080D01000848
:100060000D0100080D0100080D0100080D01000838
:100070000D0100080D0100080D0100080D01000828
:100080000D0100080D0100080D0100080D01000818
:100090000D0100080D0100080D0100080D01000808
:1000A0000D0100080D0100080D0100080D010008F8
:1000B0000D0100080D010008000000000D010008FE
:1000C0000D01000800000000000000000D01000804
:1000D000000000000D0100080D01000800000000F4
:1000E0000D0100080D0100080D01000800000000CE
:1000F0000000000000000000000000000000000000
:1001000000000000000000005FF808F1FEE70000BA
:1001100008B500230C4A0D499818884204D20C48AF
:10012000195899500433F5E70A480B494FF000027B
:100130008842B8BF40F8042BFFF6FAAF00F012F87F
:10014000BDE8084000F056B9000000200000002083
:10015000440F0008000000200817002080F30888E2
:10016000704700003A4B82B01A6842F001001860F4
:100170005968384A0A405A60186820F0847121F49E
:1001800080321A60186820F4802119605A684FF490
:100190001F0122F4FE000022586099600092019233
:1001A000186840F480311960294B1A6802F4003055
:1001B000019000994A1C0092019818B90099B1F574
:1001C000A06FF1D11B6813F4003218BF0122019215
:1001D0000198012805D0204B4FF000629A6002B0D0
:1001E00070471E490B6843F010020A60086820F04F
:1001F00003030B600A68A1F5805342F00200086017
:10020000596859605A685A60586840F4806159606A
:100210005A6822F47C105860596841F4E8125A6018
:10022000186840F0807119601868094A8101FBD58F
:10023000536823F003015160506840F0020353609B
:10024000034A516801F00C000828F9D1C3E700BF48
:10025000001002400000FFF800ED00E00020024026
:100260001FB5124C84F8D911B4F8DA1184F8DC21E6
:1002700084F8DD319DF81C209DF8183084F8D801F1
:10028000481C84F8DE31A4F8DA0184F8DF21D4F8C0
:10029000D801D4F8DC21002301900292617C009304
:1002A0000120422200F0BAF91FBD00BF000000206B
:1002B00007B51346C2F3074200921A0E0192DAB252
:1002C000C3F30723FFF7CCFF0EBD37B51588D478ED
:1002D000C5F3C705136800951279C3F3C62302F06E
:1002E0000F020192C4F3C102FFF7BAFF3EBD000046
:1002F00038B50D4C0D4B013CDA6CFBD1DD6CADB269
:100300000B4A32F82400A84206D201341B2CF7D144
:10031000C2200721FFF7CCFF054A064902EB8404FF
:1003200063888D824B7438BDFFFF0F0000240140AD
:10033000500E00080000002070B5104B06461868EB
:10034000030401D5042417E00D490E4DB40201F158
:100350008832696004F100606A6000F057FB2B6925
:100360000446042C43F080002861EBD0C320022116
:1003700046EA0442FFF79CFF204670BD00000020C3
:10038000230167450020024008B50C4BDA6842F4AF
:100390000070D860996921F400729A61186940F080
:1003A00000711961DA6922F00070D861044B186895
:1003B000FFF7D4FE03490A68904708BD00100240C9
:1003C0000010000804100008094B5A68501C02066F
:1003D0005860C0F3021103D5802242FA01F002E016
:1003E000012202FA01F01860186800F047B900BF56
:1003F0000017002030B51F4C85B000F071F900F0F7
:100400006FFA00F09DF9FFF773FF607C00F036F99A
:1004100000F0F6F92368184943F4801020600D8835
:100420001648083DAD02A90800F036F8617C0022AC
:1004300005F10064009204F6F873019018684022F8
:1004400002900120034600F0E9F80D4D2969890763
:1004500007D000F055FB2A6942F020042C61FFF719
:10046000B3FF084B18880028EFD000F057F8FFF7CB
:10047000ABFFEAE700000020E0F7FF1F00100008D4
:10048000006400404C1200208068C0F3C000704738
:100490008068C0F38000704710B500231A468B4275
:1004A00007D050F82340B4F1FF3F18BF12190133B1
:1004B000F5E7104610BD826830B55201034607D4F7
:1004C0008068000106D49A68D20005D4042030BDAB
:1004D000002002E0012000E002200D6800F1180475
:1004E00022019D504D689C1865608D68C968A560A3
:1004F000E160995841F00101995030BD064B9A894D
:100500005989501E4A1C988190B2B0F5807F08BF6F
:1005100000205881704700BF4012002008B50C4BE6
:10052000186810F4801012D003F59252908970B1BF
:100530005189084803EB011303F51271FFF7BBFF64
:10054000042803D0FFF7DAFF002008BD062008BD0D
:10055000000000200064004008B50B4B03F59252E8
:100560009189FF2909D9FFF7C9FFC1200C214FF458
:100570008072FFF79DFE002008BD108903EB001379
:1005800003F5127008BD00BF00000020C3780422EC
:1005900062F34713C370017803F01803D3F101022B
:1005A00038BF002241F0040162F341016FF3000102
:1005B00001700368C3F3C621432998BF054A037934
:1005C0009ABF511891F84120FF2262F3030303718F
:1005D000704700BFBC0E000838B50546FFF7D6FFD0
:1005E000FFF7BAFF0446A0B185421CBF95E80F0093
:1005F00084E80F00084B19899A89501C4A1C91B253
:10060000B1F5807F98814FF0000014BF19811881E7
:1006100038BD0C2038BD00BF401200202DE9F74F37
:100620009B460E9B064601930F4692469DF83080EE
:10063000DDF83490FFF790FF019B0446D0B1C578F8
:10064000C0F8089066F3C405C5704588C36067F3B9
:10065000CA05458001686AF3D1210A0C016068F37C
:1006600082026BF3CA018270018003B0BDE8F04FD3
:10067000FFF7B2BF0C2003B0BDE8F08F0E4B10F0B7
:10068000800FDA6814BF42F4004222F400420107EE
:10069000DA600B0CC0F3001243F4807141EA42139C
:1006A000C0F3401143EA0112C0F38010034B42EA49
:1006B000C001D960704700BF00080140000C014034
:1006C00000238B4202D0C2540133FAE7704710B5C1
:1006D0000023934203D0CC5CC4540133F9E710BD2E
:1006E00041F2087110B514480022FFF7E9FF00211C
:1006F000124B1888021F5418A3B20F4C04EB410090
:1007000000F5B752138004EB81009B02013100F524
:10071000B752042903F100609060E9D104F5F57047
:10072000FF22FFF7CDFF04F5F7700821FF22BDE897
:100730001040FFF7C5BF00BF00000020E0F7FF1F1B
:10074000254B10B55A6822F440405860596841F46E
:1007500000445C609A6942F400709861D96821F4A1
:100760000074DC60A3F56C435A6822F4702020F416
:10077000807159609C68194A224042F4602040F020
:1007800002019960DC6A24F47002DA62986840F031
:10079000010199609C6844F008029A60104C204660
:1007A000FFF772FE0028F9D1A36843F00400A060AF
:1007B0000B4C2046FFF76CFE0028F9D14FF0C051DA
:1007C000092221616263A36843F00100A060A1686F
:1007D00041F4A002A26010BD00100240FDF7F1FF3D
:1007E000002401404FF48033044A516801F00102B3
:1007F000824201D1013BF7D1704700BF0064004045
:10080000314B10B5DA6942F00070D861196921F0F6
:1008100000741C612D4C236823F0020222602068C2
:1008200040F0010121600020FFF7DCFF236823F086
:10083000B80222602068264B40F044012160E36149
:10084000226822F0010020600120FFF7CBFFD4F8DE
:10085000001241F00103C4F80032D4F81C2222F047
:100860000300C4F81C02D4F80C1241F00303C4F8CE
:100870000C32D4F8042222F00300C4F80402D4F8A5
:100880001412144A41F00303C4F81432507CC1041A
:1008900041F000431048114943F00402C4F84022DB
:1008A000C4F84402C4F84812C4F84C02D4F81C320C
:1008B00043F00302C4F81C22D4F8000220F0010126
:1008C000C4F8001210BD00BF0010024000640040D8
:1008D0000B001200000000200400F8E70400008074
:1008E000144B9A6942F00D009861D96821F00D020D
:1008F000DA60A3F58833586820F0E06159605A68DF
:100900000D4942F000700D4A5860C3F800184BF6CC
:10091000EC000B49C3F80428C3F80C084FF022324E
:100920004FF6F850C3F8001CC3F8042CC3F80C0CA5
:10093000704700BF00100240008B208823848B2862
:1009400002242288034A044B02F188305A6058601E
:10095000704700BF2301674500200240024B1A691F
:1009600042F080001861704700200240084BDA68AE
:10097000D20709D4D868400708D4D96811F0100FFD
:100980000CBF0420032070470120704702207047ED
:100990000020024010B50446FFF7E8FF012806D109
:1009A0001CB1FFF7E3FF013CF8E7052010BD002C68
:1009B00008BF052010BD000073B5002306464FF4A4
:1009C00000500D460193FFF7E5FF04281AD10E4CA5
:1009D000AAB2206940F0010121614FF40050328039
:1009E000FFF7D8FF042808D102360196019B2D0C91
:1009F0001D804FF40050FFF7CDFF216941F6FE72D4
:100A00000A4022617CBD00BF0020024038B5054687
:100A10004FF43020FFF7BEFF042812D1094C2369A0
:100A200043F002002061656121694FF4302041F0FC
:100A300040022261FFF7AEFF216941F6FD730B40D2
:100A4000236138BD0020024010F0010309D1074A9C
:100A5000904208D906490B6998422CBF002001201A
:100A60007047002070471846704700BFFF0F00080E
:100A7000E016002070B506464FF43020FFF78AFFDD
:100A8000042838D11C4B1D4C03F18830A360A060B2
:100A9000216941F020022261236943F04000206176
:100AA0004FF43020FFF776FF042824D1256941F662
:100AB000DF71294021610025104C05F18050226929
:100AC000A0F5806142F010032361725D4B001A8033
:100AD0004FF40050FFF75EFF05280CD0216941F666
:100AE000EF7301350B40082D2361E5D1226941F6F2
:100AF000EF711140216170BD230167450020024064
:100B00002DE9FF41C14CE678C6F3C106002E00F086
:100B1000C080012E40F074812368C3F3C6203328BF
:100B20004FD007DC302832D031283AD0102840F09E
:100B300061811BE0362800F09A8003DC342840F005
:100B400059814EE0372800F0A180412840F05281C1
:100B500094E80F008DE80F00AD49BDF802004A7C13
:100B60006D4662F3CA00ADF802006BE1A268E1686D
:100B700011408B0740F16981A64CA74EE56805F44A
:100B8000E06747EA0603E360BFF34F8FFEE7A16823
:100B90000023A24A98180433B3F5806F0161F8D19D
:100BA00053E120889A4BC0F3C7025200A16802F2B9
:100BB000944043F82010E06802F2954243F8220086
:100BC00043E12388C3F3C7008102B1F5004F80F0F1
:100BD0001A81934801F100614FF48062FFF777FDBD
:100BE00033E12588C5F3C706B60206F1006528463D
:100BF000FFF72AFF002800F006814FF48071884833
:100C0000FFF74AFCA1680246884202D0C1200F21AA
:100C10002AE02488C4F3C700FFF78EFB05F5806443
:100C2000FFF790FE7A4A7F4B901B4119CA1828465D
:100C300011680435FFF7C0FEFFF790FEA542EFD123
:100C4000724C2088C0F3C7018B0203F100604FF49F
:100C50008071FFF721FCA268904200F0F6802388A3
:100C6000C1201021C3F3C702FFF722FBEDE0FFF71D
:100C700069FE6D48FFF7FEFE0446FFF76FFE042C89
:100C800000F0E380C12031462246EDE7FFF77CFB10
:100C9000DBE094E80F008DE80F00DFF87481BDF809
:100CA000027098F81120022062F3CA07ADF80270B2
:100CB0003B0A02AF60F3C4030821324638468DF880
:100CC0000330FFF7FDFC21686D46C1F3C622D3B2A5
:100CD000062B00F0BA8019DC022B3CD0032B57D036
:100CE000012B40F087805148514B01788DF8081056
:100CF00018788DF80A20C10863224E4B8DF8091030
:100D00008DF80B2018788DF80C009BE0312B49D022
:100D100005DC0A2B6ED1384608F5B75166E0352B55
:100D200058D0362B66D1BDF80000434966F3CA009F
:100D30000822ADF800003846FFF7C9FC6846FFF707
:100D40004BFCBDF80010012262F3CA01ADF800109F
:100D500038463A494AE03A484FF4806201884FF0F9
:100D60000063ADF80810ADF80A2003936AE000F1C3
:100D70000051A1F6180200ACD15CE2180133062B39
:100D80001172F4D168460136FFF726FC022E5CD0C2
:100D9000BDF80040062066F3CA04ADF80040704379
:100DA0000023E4E73446BDF8003062081B4862F3D4
:100DB000CA033118ADF800300A694B69023468463D
:100DC000A4B2029203930836FFF706FCB4F5807FC5
:100DD000E9D13AE02388C3F3C700810201F1006042
:100DE0004FF48071FFF758FB02902BE00822FFF7C9
:100DF0006EFC27E0C1200821044AFFF766FA24E0D0
:100E0000C1200721F8E7C1200921F5E7C0650040AE
:100E10000000002000ED00E00400FA054012002070
:100E200050120020501200F8C865004004F8FF1F5F
:100E300002F8FF1F06F8FF1F00F8FF1F08F8FF1F4A
:100E4000E0F7FF1F6846FFF7C7FBBDE8FF8100BF63
:100E50006C005B0026011A00C40110007B02150023
:100E600024030B00AF0316003A040C00CC04170057
:100E70006D050D001B061800D7060E009A07190015
:100E80005C080F0029095C00F0092E00A30A240069
:100E9000550B2900F90B1F00800C2A00F50C2000CF
:100EA0006F0D2B00E50D2100530E2C00C40E220007
:100EB000420F2D00C20F2300FF0FFE000100002093
:100EC000000F0F0001000000000000000307000FEA
:100ED00000010101010000000000000000003F3F90
:100EE0003F3F3F07000000000000FF00FFFFFFFF43
:100EF000000000000000000000FFFFFF13010508D4
:100F000006040808060205080808FFFFFF0801019B
:100F1000060302080206070606FFFFFFFF010101A4
:100F20000404080808080804FFFFFFFFFF0408087E
:100F30000004040800FFFFFFFFFFFFFFFF08080891
:010F400008A8
:0400000508000000EF
:00000001FF
