:020000040800F2
:10000000900C002069060008C9060008C90600080F
:10001000C9060008C9060008C9060008000000005B
:10002000000000000000000000000000C9060008F9
:10003000C906000800000000C9060008111C0008DD
:10004000C9060008C9060008C9060008C906000854
:10005000C9060008C9060008C9060008C906000844
:10006000C9060008C9060008C9060008C906000834
:10007000C9060008C9060008C9060008C906000824
:10008000C9060008C9060008C9060008C906000814
:10009000C9060008B1200008C9060008C906000802
:1000A000C9060008C9060008C9060008C9060008F4
:1000B000C9060008C9060008C9060008C9060008E4
:1000C000C9060008C9060008C9060008C9060008D4
:1000D000C9060008C9060008C9060008C9060008C4
:1000E000C9060008C9060008C9060008000000008B
:1000F0000000000000000000000000000000000000
:1001000000000000000000005FF808F180B483B038
:1001100000AF78607B68B3F1FF3F11D07B68C3F319
:100120000313DBB2012B06D0012B02D3022B04D028
:1001300005E0064B05E0064B03E0064B01E000E05E
:10014000002318460C37BD4680BC704700080140AC
:10015000000C01400010014080B586B000AF78600F
:100160007B68B3F1FF3F57D07868FFF7CFFF786126
:100170007B68C3F30303DBB2072B1DD87B68C3F393
:100180000303DBB29B003B617B691B680F213A696B
:1001900001FA02F2D2431A407B691A607B691B683C
:1001A0007A68C2F30322D2B211463A6901FA02F226
:1001B0001A437B691A601DE07B68C3F30303DBB25B
:1001C000083B9B003B617B695B680F213A6901FA40
:1001D00002F2D2431A407B695A607B695B687A6895
:1001E000C2F30322D2B211463A6901FA02F21A436B
:1001F0007B695A607B68FB607B7B23F07F03DBB20B
:10020000002B09D07B68C3F30233DBB203F0010398
:100210001946786800F02FF800BF1837BD4680BD3A
:1002200080B582B000AF78607B68B3F1FF3F09D042
:100230007868FFF76BFF02467B68C3F30F439BB2FE
:100240001B04136100BF0837BD4680BD80B582B076
:1002500000AF78607B68B3F1FF3F08D07868FFF7A4
:1002600055FF02467B68C3F30F439BB2136100BF87
:100270000837BD4680BD80B582B000AF7860396078
:100280007B68B3F1FF3F0AD03B68002B03D178684D
:10029000FFF7C6FF04E07868FFF7D8FF00E000BF73
:1002A0000837BD4680BD000080B582B000AF7860E1
:1002B0003960294B01221A603B6803331B781A0608
:1002C0003B6802331B781B041A443B6801331B78DC
:1002D0001B0213443A68127813441A461F4B1A60E3
:1002E00001F024F81D4B1B681946786801F070F87E
:1002F0000346042B03D0184B00221A6022E03B680F
:1003000007331B781A063B6806331B781B041A4414
:100310003B6805331B781B0213443A680432127899
:1003200013441A460D4B1A607B681A1D0B4B1B6851
:100330001946104601F04CF80346042B02D0064B38
:1003400000221A6001F004F8034B1B68DBB2184668
:100350000837BD4680BD00BF40050020380500209D
:1003600080B584B000AF786039600123FB7300F082
:10037000DDFF3B689B0A7B81352001F073F8002389
:10038000BB8110E0BB899B021A467B681344184668
:1003900000F0ECFF0346042B02D00023FB7306E0C1
:1003A000BB890133BB81BA897B899A42EAD300F0C9
:1003B000CFFFFB7B18461037BD4680BD80B487B0A9
:1003C00000AFF860B9607A600023FB821DE0FB8A11
:1003D0007A681344F98AFA680A441278D2B21A7019
:1003E000FB8A7A6813441B78002B05D0FB8A7A6855
:1003F00013441B78FF2B05D1FB8A7A681344002233
:100400001A7006E0FB8A0133FB82FA8ABB689A42C3
:10041000DDD300BF1C37BD4680BC704780B500AF40
:10042000154A154B1B6843F0010313601249124B28
:100430005A68124B13404B600F4A0F4B1B6823F056
:10044000847323F4803313600B4A0B4B1B6823F433
:1004500080231360084A084B5B6823F4FE03536053
:10046000054B4FF41F029A6000F078F8044B4FF0F0
:1004700000629A6000BF80BD001002400000FFF8DB
:1004800000ED00E080B485B000AF0023FB600023E6
:10049000BB6000237B602C4B5B6803F00C03FB60AC
:1004A000FB68042B07D0082B09D0002B33D1274B36
:1004B000274A1A6033E0254B254A1A602FE0224B69
:1004C0005B6803F47013BB601F4B5B6803F48033FD
:1004D0007B60BB689B0C0233BB607B68002B06D142
:1004E000BB681C4A02FB03F3184A136017E0164B63
:1004F0005B6803F40033002B06D0BB68154A02FB8F
:1005000003F3124A13600AE0BB68114A02FB03F3CB
:100510000E4A136003E00D4B0D4A1A6000BF0A4BF0
:100520005B681B0903F00F030B4AD35CDBB2FB6073
:10053000064B1A68FB6822FA03F3044A136000BFF3
:100540001437BD4680BC70470010024000000020F8
:1005500000127A0000093D000400002080B500AFC1
:1005600000F002F800BF80BD80B483B000AF00236C
:100570007B6000233B603A4A394B1B6843F480336D
:100580001360374B1B6803F400333B607B68013317
:100590007B603B68002B03D17B68B3F5A06FF0D183
:1005A0002F4B1B6803F40033002B02D001233B6068
:1005B00001E000233B603B68012B4BD1294A294BCA
:1005C0001B6843F010031360264A264B1B6823F078
:1005D00003031360234A234B1B6843F00203136099
:1005E0001F4A1F4B5B6853601D4A1D4B5B6853607D
:1005F0001B4A1B4B5B6843F480635360184A184BDB
:100600005B6823F47C135360154A154B5B6843F415
:10061000E8135360124A124B1B6843F08073136057
:1006200000BF0F4B1B6803F00073002BF9D00C4A7E
:100630000B4B5B6823F003035360094A084B5B686C
:1006400043F00203536000BF054B5B6803F00C03EB
:10065000082BF9D100BF0C37BD4680BC704700BFE6
:10066000001002400020024080B582B000AF114B64
:100670007B60114B3B6007E03B681A1D3A607A686B
:10068000111D796012681A603B680C4A9342F3D3DB
:100690000B480C494FF000028842B8BF40F8042BC9
:1006A000FADBFFF7BBFE00F013F800BF0837BD46CA
:1006B00080BD00BFF42E0008000000205000002084
:1006C000500000208C08002080B400AFFEE700003E
:1006D00080B500AF01F038FA00F000FC01F012F92B
:1006E00001F0ACFA00F044FC014B01221A70FEE765
:1006F0005000002080B500AF384B1B78002B6AD02B
:10070000374B1B8801339AB2354B1A80344B1B8808
:1007100003F003039AB2334B1A80324B1B88002B31
:1007200007D0304B1B881A462F4B53F8223098477E
:1007300052E02B4B1B8803F01C03002B16D0284BD8
:100740001B889B089BB203F007039AB2254B1A80C3
:10075000244B1B881A46254B53F822309847214BCF
:100760001B8808339AB21F4B1A8035E01C4B1B883C
:1007700003F0E003002B16D0194B1B885B099BB2DA
:1007800003F007039AB2174B1A80164B1B881A46C0
:10079000174B53F822309847124B1B8810339AB2EC
:1007A000104B1A8018E00E4B1B881B0A9BB203F0FB
:1007B00007039AB20B4B1A800A4B1B881A460D4B43
:1007C00053F822309847074B1B8818339AB2054BD1
:1007D0001A8000BF00E000BF80BD00BF50000020B5
:1007E0006C040020F0040020B82D0008D82D00086B
:1007F000F82D0008182E000880B400AF00BFBD46D9
:1008000080BC704780B584B004AF2C4B1B680133AB
:100810002A4A1360294B1B6803F00103002B04D004
:10082000274B4FF400421A6103E0254B4FF0004282
:100830001A61244B1B88DAB2234B1A70214B1B8898
:100840001B0A9BB2DAB2204B5A70204B1B88DAB2DB
:100850001D4B9A701D4B1B881B0A9BB2DAB21A4BB8
:10086000DA701B4B1B88DAB2174B1A71184B1B88B6
:100870001B0A9BB2DAB2144B5A71164B1B88DAB2C0
:10088000114B5A71134B1B881B0A9BB2DAB20E4BE9
:10089000DA710A4B1B68DBB203F00303DAB20823F8
:1008A0000293094B01930023009313460122002178
:1008B000402000F04BF900BFBD4680BD640400201D
:1008C00000080140160000202400002044050020FC
:1008D0004A0500204805002080B400AF134B1B8858
:1008E000002B09D0114B1B88013B9AB20F4B1A8089
:1008F0000F4B10221A6103E00D4B4FF480121A6166
:100900000C4B1B88002B09D00A4B1B88013B9AB269
:10091000084B1A80064B08221A6103E0044B4FF47F
:1009200000221A6100BFBD4680BC70472C05002024
:10093000000C01402E05002080B586B004AF4D4B61
:100940001B88022B04D0032B5ED0012B53D07EE0FA
:10095000494B1B685A1C13465B0013445B00B3F5FC
:10096000806F03D9434B00221A8070E0424B1B6812
:10097000DAB2424B1A70404B1B681B0ADAB23F4B8B
:100980005A700023FB710023BB711AE0FB7901331D
:10099000FB71BB79991C384B1A6813465B001344F2
:1009A0005B001A46BB791344354AD25C334B5A5428
:1009B000BB790233314AD35C002B06D0BB790133BB
:1009C000BB71BB79052BE1D900E000BFFB79023395
:1009D000DBB20293294B01930023009300231122E1
:1009E0000021402000F0B2F8FB79052B2CD8214BD8
:1009F00000221A8028E04FF480612248FFF7B0FC03
:100A00001C4B00221A8022E01B4B1B68DB00B3F555
:100A1000806F03D3174B00221A8018E0164B1B6817
:100A200003F1807303F57863D800134B1B68DB0078
:100A3000134A13441946FFF737FC0346002B05D130
:100A40000C4B00221A8002E000BF00E000BF0A4BFE
:100A50001B680133084A1360074B1B684FF6FE7290
:100A6000934202D9044B00221A6000BF0837BD46EA
:100A700080BD00BF040500201C00002024000020D1
:100A800064000020007C000880B400AF00BFBD46B9
:100A900080BC704780B400AF154B1B7803F0010396
:100AA000002B03D0134B01221A6002E0114B0022ED
:100AB0001A600F4B1B7803F00203002B03D00E4B80
:100AC00001221A6002E00C4B00221A60084B1B78CE
:100AD0000133DAB2064B1A70054B1B7803F007039B
:100AE000DAB2034B1A7000BFBD4680BC704700BF2E
:100AF00006050020808121429401214290B482B0F9
:100B000000AF0446084611461A462346FB800346BA
:100B10007B710B463B711346FB703B7C1A07FB88CD
:100B20001B0513441A46084B1B881B0313447A7990
:100B3000D20213443A7912011A44FB78134418463E
:100B40000837BD4690BC70471400002090B587B0B0
:100B500002AF0446084611461A462346FB80034668
:100B60007B710B463B711346FB70284B1B881A4662
:100B700013469B0013449B00254A1344FB60FC78FA
:100B80003A797979F88897F8203000932346FFF76F
:100B9000B5FF0246FB681A607B6A002B0BD097F802
:100BA0002830002B07D0FB680A3397F82820796A91
:100BB000184602F03DF8FB6897F828209A74FB6805
:100BC00097F820201A71FB687A79DA71FB683A7914
:100BD0001A72FB68FA785A720E4B1B88DAB2FB68FD
:100BE0009A71FB88DAB2FB685A710B4B1B88013390
:100BF0009AB2094B1A80084B1B880E2B02D9064B60
:100C000000221A8000BF1437BD4690BD1405002095
:100C100050050020140000201205002080B588B087
:100C200004AF7B4B1A887B4B1B889A4200F0EC8008
:100C3000784B1B881A4613469B0013449B00764A48
:100C40001344BB600023FB80BB68DB79002B00F002
:100C50008180012B40F0CA80BB681B7A122B11D017
:100C6000202B45D0102B00D0C0E06C4B00221A6026
:100C70004FF4806200216A4802F050F8694B01226B
:100C80001A8066E0BB689B7A9AB2BB68DB7A9BB23B
:100C90001B029BB21344FB80FB881A46520013448C
:100CA0005B00FB800223FB731CE0FA88FB7B134490
:100CB000023BFA7BB9680A44917A594AD154FA88BE
:100CC000FB7B1344023B564AD35C002B07D1534BAA
:100CD00000221A60534B03221A8000BF39E0FB7BCD
:100CE0000133FB73BB689B7CFA7B9A42DDD330E017
:100CF000BB685B7A012B1ED0022B0FD0002B00D0DB
:100D000026E0BB689B7A9AB2BB68DB7A9BB21B0277
:100D10009BB213449AB2444B1A8019E0BB689B7A89
:100D20009AB2BB68DB7A9BB21B029BB213449AB2A5
:100D30003E4B1A800CE0BB689B7A9AB2BB68DB7AA8
:100D40009BB21B029BB213449AB2394B1A8000BF6C
:100D500000BF4BE0BB681B7A022B39D0112B00D0AF
:100D600043E0BB680A3303331B781A06BB680A33B7
:100D700002331B781B041A44BB680A3301331B7807
:100D80001B021344BA68927A134403F1006303F51B
:100D9000F843BA680E32033212781106BA680E327E
:100DA0000232127812041144BA680E3201321278FB
:100DB00012020A44B968897B1144194A1846FFF7A0
:100DC000FDFA164B00221A60164B02221A800CE024
:100DD00000230293002301930023009300230222A7
:100DE00000214020FFF7B2FE00BF00BF094B1B8867
:100DF00001339AB2074B1A80064B1B880E2B04D97D
:100E0000044B00221A8000E000BF1037BD4680BDB1
:100E10000E050020100500207C0600201C0000208C
:100E20006400002004050020180000205800002065
:100E30004605002080B582B000AF174B1A88174BCB
:100E40001B889A4224D0154B1B881A4613469B00D8
:100E500013449B00124A13447B607B6818687B68CC
:100E600003F10A017B689B7C1A4601F06BF803468C
:100E7000012B0ED1094B1B8801339AB2074B1A8004
:100E8000064B1B880E2B04D9044B00221A8000E06D
:100E900000BF0837BD4680BD1205002014050020A4
:100EA0005005002080B485B000AF78600023FB605F
:100EB000094B5B68FB60FB6823F44043FB60FA6806
:100EC0007B681343FB60044AFB68536000BF143720
:100ED000BD4680BC704700BF0010024080B500AF27
:100EE000174A174B5B6823F0E0635360144A144BB6
:100EF0005B6843F0007353601248FFF72DF9124806
:100F0000FFF72AF91148FFF727F91148FFF724F9ED
:100F10001048FFF721F91048FFF71EF90F48FFF7B7
:100F20001BF90F48FFF718F90E48FFF715F90E489F
:100F3000FFF712F90D48FFF70FF900BF80BD00BFA2
:100F4000000001400F9200801392080014921000DC
:100F50001F9200801E9200401D9200201C920010E3
:100F60000BB800080C9B00101082010005822000C5
:100F700080B400AF0F4B4FF480121A610D4B4FF449
:100F800000221A610B4B4FF400121A610A4B4FF00A
:100F900000421A61074B4FF000521A61054B4FF0A7
:100FA00080421A61034B4FF080521A6100BFBD4668
:100FB00080BC7047000C01400008014080B485B03F
:100FC00000AF786039600023FB600023FB727B6810
:100FD0005B68FB60FB6823F4702323F48073FB6081
:100FE0003B681A683B681B791B021343FA6813437A
:100FF000FB607B68FA685A607B689B68FB60FA68F4
:10100000164B1340FB603B68DA683B689B681A43E9
:101010003B685B795B001343FA681343FB607B68B2
:10102000FA689A607B68DB6AFB60FB6823F47003F4
:10103000FB603B681B7C013BDAB2FB7A1343FB721B
:10104000FB7A1B05FA681343FB607B68FA68DA6277
:1010500000BF1437BD4680BC704700BFFDF7F1FFED
:1010600080B483B000AF78600B46FB70FB78002B38
:1010700006D07B689B6843F001027B689A6005E0BC
:101080007B689B6823F001027B689A6000BF0C3785
:10109000BD4680BC704780B483B000AF78600B461B
:1010A000FB70FB78002B06D07B689B6843F4807252
:1010B0007B689A6005E07B689B6823F480727B689C
:1010C0009A6000BF0C37BD4680BC704780B483B0C7
:1010D00000AF78607B689B6843F008027B689A6089
:1010E00000BF0C37BD4680BC704780B485B000AFF0
:1010F00078600023FB737B689B6803F00803002B78
:1011000002D00123FB7301E00023FB73FB7B184635
:101110001437BD4680BC704780B483B000AF7860A0
:101120007B689B6843F004027B689A6000BF0C37C1
:10113000BD4680BC704780B485B000AF78600023A6
:10114000FB737B689B6803F00403002B02D0012330
:10115000FB7301E00023FB73FB7B18461437BD468D
:1011600080BC704780B483B000AF78600B46FB70E2
:10117000FB78002B06D07B689B6843F4A0027B6859
:101180009A6005E07B689B6823F4A0027B689A6004
:1011900000BF0C37BD4680BC704780B485B000AF3F
:1011A0007860084611461A460346FB700B46BB7032
:1011B00013467B700023FB600023BB60FB78092B88
:1011C00023D97B68DB68FB60FB78A3F10A02134636
:1011D0005B001344072202FA03F3BB60BB68DB43E6
:1011E000FA681340FB607978FB78A3F10A02134692
:1011F0005B00134401FA03F3BB60FA68BB68134356
:10120000FB607B68FA68DA601EE07B681B69FB6044
:10121000FA7813465B001344072202FA03F3BB601B
:10122000BB68DB43FA681340FB607978FA781346B1
:101230005B00134401FA03F3BB60FA68BB68134315
:10124000FB607B68FA681A61BB78062B21D87B6843
:101250005B6BFB60BB785A1E13469B0013441F2236
:1012600002FA03F3BB60BB68DB43FA681340FB6020
:10127000F978BB785A1E13469B00134401FA03F316
:10128000BB60FA68BB681343FB607B68FA685A630B
:1012900047E0BB780C2B21D87B681B6BFB60BB78CD
:1012A000DA1F13469B0013441F2202FA03F3BB60AC
:1012B000BB68DB43FA681340FB60F978BB78DA1F40
:1012C00013469B00134401FA03F3BB60FA68BB6842
:1012D0001343FB607B68FA681A6322E07B68DB6A71
:1012E000FB60BB78A3F10D0213469B0013441F2241
:1012F00002FA03F3BB60BB68DB43FA681340FB6090
:10130000F978BB78A3F10D0213469B00134401FA50
:1013100003F3BB60FA68BB681343FB607B68FA6841
:10132000DA6200BF1437BD4680BC704780B400AF9E
:10133000044B054A5A60034B044A5A6000BFBD463D
:1013400080BC70470020024023016745AB89EFCD88
:1013500080B400AF044A044B1B6943F0800313615F
:1013600000BFBD4680BC70470020024080B584B0FD
:1013700000AF78600423FB734FF4302000F0AAF82C
:101380000346FB73FB7B042B1BD1104A0F4B1B69DD
:1013900043F0020313610D4A7B6853610B4A0B4B08
:1013A0001B6943F0400313614FF4302000F092F8C2
:1013B0000346FB730549054B1A6941F6FD7313405B
:1013C0000B61FB7B18461037BD4680BD00200240F4
:1013D00080B584B000AF786039600423FB730023CC
:1013E000BB604FF4005000F075F80346FB73FB7BC5
:1013F000042B30D11A4A1A4B1B6943F001031361C5
:101400007B683A6892B21A804FF4005000F062F89C
:101410000346FB73FB7B042B16D17B680233BB6056
:10142000BB681A463B681B0C9BB213804FF40050FC
:1014300000F050F80346FB730949094B1A6941F65D
:10144000FE7313400B6106E00549054B1A6941F62E
:10145000FE7313400B61FB7B18461037BD4680BD01
:101460000020024080B483B000AF7860034A7B68FC
:10147000D36000BF0C37BD4680BC704700200240DF
:1014800080B483B000AF0423FB71114BDB6803F021
:101490000103012B02D10123FB7113E00C4BDB682C
:1014A00003F00403002B02D00223FB710AE0084B77
:1014B000DB6803F01003002B02D00323FB7101E073
:1014C0000423FB71FB7918460C37BD4680BC70477E
:1014D0000020024080B584B000AF78600423FB7325
:1014E000FFF7CEFF0346FB7306E0FFF7C9FF034695
:1014F000FB737B68013B7B60FB7B012B02D17B682C
:10150000002BF2D17B68002B01D10523FB73FB7B01
:1015100018461037BD4680BDB0B586B000AF5A4BF7
:101520001B881A461346DB0013449B00574A13449A
:10153000574A1360564B1B68534A12881146554A46
:1015400032F811201A80524B1B6893F82020013288
:10155000D2B283F820204E4B1B6893F82030092B21
:1015600004D94B4B1B68002283F82020484B1A6893
:10157000474B1B6893F820301846454B1B681B8867
:1015800019B2031D5B0013440A469A806FF00043B2
:101590003B614FF00043FB6000237B610023BB6095
:1015A0001BE03B4B1A68BB6804335B001344B3F980
:1015B00004307B607A697B6813447B617A683B699D
:1015C0009A4201DA7B683B617A68FB689A4201DDE6
:1015D0007B68FB60BB680133BB60BB68092BE0DD47
:1015E0003A69FB6813447A69D31A7B61284B1B68FC
:1015F0007A69D21012B29A80254B1D68224B1B8843
:101600001C46234B1B68B3F90430184601F0BCFAA2
:101610000346184600F048FF17A3D3E9002300F063
:1016200097FF02460B461046194615A3D3E900233F
:1016300001F0B8F802460B461046194601F09AF937
:101640000246154B43F82420134B53F82430AB606B
:101650000D4B1B8801339AB20B4B1A800A4B1B8827
:10166000022B02D9084B00221A8000BF1837BD4652
:10167000B0BD00BFAFF300806666666666660A406E
:101680000000000000FEAF4024050020AC07002051
:1016900018080020300800201805002080B500AF91
:1016A000064BB3F928309BB21946054800F0D2F931
:1016B00003469AB2034B1A8000BF80BDAC070020DE
:1016C000A42E00081600002080B500AFFFF724FF0D
:1016D000FFF7E4FF00BF80BD80B483B000AF786047
:1016E0007B681A684FF6FE7313407A6813607B6854
:1016F00000221A607B6800225A607B6800229A6090
:101700007B680022DA607B68434A934206D1434AF1
:10171000424B5B6843F00F03536077E07B68404ABD
:10172000934206D13D4A3D4B5B6843F0F003536062
:101730006CE07B683B4A934206D1384A374B5B6882
:1017400043F47063536061E07B68374A934206D18B
:10175000324A324B5B6843F47043536056E07B6817
:10176000324A934206D12D4A2C4B5B6843F47023D6
:1017700053604BE07B682E4A934206D1274A274BA1
:101780005B6843F47003536040E07B68294A9342EE
:1017900006D1224A214B5B6843F07063536035E009
:1017A0007B68254A934206D1244A244B5B6843F068
:1017B0000F0353602AE07B68214A934206D11F4AF7
:1017C0001E4B5B6843F0F00353601FE07B681D4ACB
:1017D000934206D1194A194B5B6843F47063536016
:1017E00014E07B68184A934206D1144A134B5B6895
:1017F00043F47043536009E07B68144A934205D177
:101800000E4A0E4B5B6843F47023536000BF0C37E5
:10181000BD4680BC704700BF080002400000024087
:101820001C000240300002404400024058000240C8
:101830006C000240800002400804024000040240A4
:101840001C04024030040240440402405804024098
:1018500080B485B000AF786039600023FB607B689E
:101860001B68FB60FB6823F4FF4323F07003FB60FD
:101870003B689A683B681B6A1A433B681B691A43BA
:101880003B685B691A433B689B691A433B68DB69A9
:101890001A433B685B6A1A433B689B6A1343FA68C6
:1018A0001343FB607B68FA681A603B68DA687B6800
:1018B0005A603B681A687B689A603B685A687B6824
:1018C000DA6000BF1437BD4680BC704780B483B077
:1018D00000AF78600B46FB70FB78002B06D07B686E
:1018E0001B6843F001027B681A6006E07B681A6897
:1018F0004FF6FE7313407A68136000BF0C37BD4685
:1019000080BC704780B582B000AF0023FB7126E039
:10191000FA79494913465B0013449B000B441B684A
:10192000D8B2FA79444913465B0013449B000B4438
:1019300004331B68DAB2072301464048FFF72DFC49
:10194000FA793D4913465B0013449B000B4408336E
:101950001B681846FEF700FCFB790133FB71FB792D
:10196000022BD5D9364B00221A60354B01221A7151
:10197000334B01225A71324B4FF460229A60304B44
:101980000022DA602E4B03221A742D492B48FFF7F0
:1019900015FB2C48FFF7A0FE2B4B2C4A1A602C4A53
:1019A000294B5A60284B00229A60274B0322DA60A9
:1019B000254B00221A61244B80225A61224B4FF49E
:1019C00080729A61204B4FF48062DA611E4B2022B4
:1019D0001A621D4B4FF480525A621B4B00229A62CE
:1019E00019491848FFF734FF01211648FFF76EFF29
:1019F00001211248FFF74FFB01211048FFF730FB90
:101A00000E48FFF763FB00BF0C48FFF76EFB034671
:101A1000002BF9D10948FFF77FFB00BF0748FFF70C
:101A20008AFB0346002BF9D101210448FFF79AFBFA
:101A300000BF0837BD4680BD2C00002000240140B7
:101A40001C08002008000240380800204C240140F7
:101A50003008002080B485B000AF78600B467B80F2
:101A600047F6FF73FB600023FB7212E0FB7A9B00DA
:101A70007A6813441B887A889A4207D2FB7A9B00C3
:101A80007A681344B3F90230FB600AE0FB7A013351
:101A9000FB72FB7A9B007A6813441B88B3F5805F66
:101AA000E4D1FB681BB218461437BD4680BC7047B2
:101AB00080B483B000AF03463960FB7197F90730FB
:101AC000002B0BDA0D49FB7903F00F03043B3A6856
:101AD000D2B21201D2B20B441A7609E0084997F942
:101AE00007303A68D2B21201D2B20B4483F8002315
:101AF00000BF0C37BD4680BC704700BF00ED00E062
:101B000000E100E080B582B000AF78607B68B3F19F
:101B1000807F01D3012311E00A4A7B6823F07F43D1
:101B2000013B53600F214FF0FF30FFF7C1FF054B22
:101B300000229A60034B07221A60002318460837D8
:101B4000BD4680BD10E000E080B500AFFEF79AFC16
:101B50002C4B1B682C4AA2FB0323DB091846FFF71A
:101B6000D1FF2A4A294B9B6943F4805343F01C035D
:101B70009361264A254BDB6823F4805323F01C0332
:101B8000D360224A214B9B6943F0010393611F4AB2
:101B90001E4BDB6823F00103D3601C4A1B4B9B697F
:101BA00043F400739361194A184BDB6823F4007304
:101BB000D360164A154BDB6943F0007343F480434E
:101BC000D361124A114B1B6923F0007323F4804345
:101BD00013614FF40040FFF765F90C4A0B4B5B694A
:101BE00043F001035361094A084B9B6943F40073B6
:101BF0009361064A054BDB6823F40073D36000BF92
:101C000080BD00BF00000020D34D621000100240D4
:101C100080B582B000AF7860074B1B68002B04D002
:101C2000054B1B68013B044A1360FEF763FD00BFD0
:101C30000837BD4680BD00BF2805002080B483B0B2
:101C400000AF5D4A5C4B1B6943F0007313615A4A55
:101C5000594B1B6923F00073136100237B60574AC3
:101C6000564B1B6823F002031360544A534B1B6806
:101C700043F00103136002E07B6801337B604F4B4C
:101C80005B6803F00103012B04D07B684FF6FF7201
:101C90009342F1D1494A494B1B6823F080031360FA
:101CA000464A464B1B6823F040031360434A434BAC
:101CB0001B6823F020031360404A404B1B6823F04D
:101CC000100313603D4A3D4B1B6823F0080313606B
:101CD0003A4A3A4B1B6823F004031360374B384AE7
:101CE000DA61364A354B1B6823F001031360002389
:101CF0007B6002E07B6801337B60304B5B6803F004
:101D00000103012B04D17B684FF6FF729342F1D19E
:101D10002A4A2A4BD3F8003243F00103C2F80032BA
:101D2000264A264BD3F81C3223F00103C2F81C329A
:101D3000224A224BD3F80C3243F00103C2F80C3292
:101D40001E4B0022C3F840221C4B0022C3F8442241
:101D50001A4A1A4BD3F8043223F00103C2F80432B2
:101D6000164A164BD3F8143243F00103C2F814326A
:101D7000124A124BD3F81C3243F00103C2F81C3252
:101D80000E4A0E4BD3F8003223F00103C2F80032A2
:101D90000A4A0A4B5B6943F010035361094B002266
:101DA00083F81523074B4FF400121A6000BF0C375D
:101DB000BD4680BC704700BF001002400064004078
:101DC0000700420000E100E080B485B000AFF86099
:101DD0000B467A60FB72FB7AFA681B331B011344D3
:101DE0001B68DBB203F00403DAB27B681A727B680B
:101DF0001B7A002B0BD1FB7AFA681B331B011344AF
:101E00001B685B0DC3F30A027B681A600AE0FB7A69
:101E1000FA681B331B0113441B68DB0823F0604284
:101E20007B685A60FB7AFA681B331B0113441B68FA
:101E3000DBB203F00203DAB27B685A72FB7AFA680B
:101E40001B331B01134404331B68DBB203F00F0385
:101E5000DAB27B689A72FB7AFA681B331B0113446F
:101E600004331B681B0ADAB27B68DA74FB7AFA68FF
:101E70001B01134403F5DC731B68DAB27B68DA726A
:101E8000FB7AFA681B01134403F5DC731B681B0A19
:101E9000DAB27B681A73FB7AFA681B01134403F504
:101EA000DC731B681B0CDAB27B685A73FB7AFA6826
:101EB0001B01134403F5DC731B681B0EDAB27B684D
:101EC0009A73FB7AFA681B01134403F5DE731B68EF
:101ED000DAB27B68DA73FB7AFA681B01134403F504
:101EE000DE731B681B0ADAB27B681A74FB7AFA6825
:101EF0001B01134403F5DE731B681B0CDAB27B680D
:101F00005A74FB7AFA681B01134403F5DE731B68ED
:101F10001B0EDAB27B689A74FB7A002B06D1FB6841
:101F2000DB6843F02002FB68DA6005E0FB681B69B0
:101F300043F02002FB681A6100BF1437BD4680BC25
:101F40007047000080B487B000AFF860B9601346F6
:101F5000FB710023FB75544B9B6803F08063B3F166
:101F6000806F02D10023FB7517E04F4B9B6803F095
:101F70000063B3F1006F02D10123FB750DE04A4B02
:101F80009B6803F08053B3F1805F02D10223FB759D
:101F900003E00423FB75002381E04349FB7D4248B5
:101FA000FA7D183212010244126802F0010218335D
:101FB0001B010B441A603C48FB7D3B49FA7D1832FB
:101FC00012010A441168FA68D2000A4342F004027E
:101FD00018331B0103441A603349FB7D3248FA7DF4
:101FE0001832120102440432126822F00F02183330
:101FF0001B010B4404331A602B48FB7D2A49FA7DF0
:10200000183212010A4404321168FA790A4318336B
:102010001B01034404331A602348FB7DBA68033272
:1020200012781106BA680232127812041143BA68A3
:102030000132127812020A43B96809780A431B0177
:10204000034403F5C4731A601748FB7DBA6807326E
:1020500012781106BA680632127812041143BA686F
:102060000532127812020A43B968043109780A432A
:102070001B01034403F5C6731A600B49FB7D0A4834
:10208000FA7D183212010244126842F0010218333C
:102090001B010B441A60054BFF221A8001231846CE
:1020A0001C37BD4680BC7047006400402E050020F0
:1020B00080B582B000AF434A01214348FFF784FE58
:1020C000404B5B681B0DFB71FB799AB23F4B1B8841
:1020D0009A4202D0FB79FF2B6AD13D4BFF221A8036
:1020E0003C4B1B881A4613469B0013449B003A4AFC
:1020F00013443B60334B5A683B681A603B680A33B1
:1021000008220021184600F009FE2E4B9B7A002B76
:1021100008D03B6803F10A002A4B9B7A1A462F49E4
:1021200000F086FD274B9A7A3B689A74254B5B68D2
:1021300003F08053002B14BF01230023DBB21A46A7
:102140003B681A711F4B5B6803F40063002B14BFDC
:1021500001230023DBB21A463B68DA71194B5B6836
:102160001B09DBB203F07F03DAB23B681A72154B2E
:102170005B68DBB203F00F03DAB23B685A72114BB3
:102180005B681B0BDAB23B689A710E4B5B681B0DE8
:10219000DAB23B685A710F4B1B8801339AB20D4B70
:1021A0001A800C4B1B880E2B02D90A4B00221A8076
:1021B000054A054B1B6943F02003136100BF083734
:1021C000BD4680BD78080020006400401400002057
:1021D0002C0500200E0500207C060020830800202E
:1021E00081F0004102E000BF83F0004330B54FEAC8
:1021F00041044FEA430594EA050F08BF90EA020F35
:102200001FBF54EA000C55EA020C7FEA645C7FEAC7
:10221000655C00F0E2804FEA5454D4EB5555B8BFEA
:102220006D420CDD2C4480EA020281EA030382EA5B
:10223000000083EA010180EA020281EA0303362DED
:1022400088BF30BD11F0004F4FEA01314FF4801CC0
:102250004CEA113102D0404261EB410113F0004FD2
:102260004FEA03334CEA133302D0524263EB430389
:1022700094EA050F00F0A780A4F10104D5F1200E27
:102280000DDB02FA0EFC22FA05F2801841F1000182
:1022900003FA0EF2801843FA05F359410EE0A5F156
:1022A00020050EF1200E012A03FA0EFC28BF4CF087
:1022B000020C43FA05F3C01851EBE37101F000453D
:1022C00007D54FF0000EDCF1000C7EEB00006EEB4A
:1022D0000101B1F5801F1BD3B1F5001F0CD34908D4
:1022E0005FEA30004FEA3C0C04F101044FEA44522B
:1022F00012F5800F80F09A80BCF1004F08BF5FEAB2
:10230000500C50F1000041EB045141EA050130BD91
:102310005FEA4C0C404141EB010111F4801FA4F134
:102320000104E9D191F0000F04BF01460020B1FA89
:1023300081F308BF2033A3F10B03B3F120020CDAC1
:102340000C3208DD02F1140CC2F10C0201FA0CF09F
:1023500021FA02F10CE002F11402D8BFC2F1200C04
:1023600001FA02F120FA0CFCDCBF41EA0C019040BA
:10237000E41AA2BF01EB0451294330BD6FEA040403
:102380001F3C1CDA0C340EDC04F11404C4F12002EE
:1023900020FA04F001FA02F340EA030021FA04F300
:1023A00045EA030130BDC4F10C04C4F1200220FA57
:1023B00002F001FA04F340EA0300294630BD21FA95
:1023C00004F0294630BD94F0000F83F4801306BF5B
:1023D00081F480110134013D4EE77FEA645C18BF4F
:1023E0007FEA655C29D094EA050F08BF90EA020FE6
:1023F00005D054EA000C04BF1946104630BD91EADE
:10240000030F1EBF0021002030BD5FEA545C05D1E0
:102410004000494128BF41F0004130BD14F580041F
:102420003CBF01F5801130BD01F0004545F0FE4193
:1024300041F470014FF0000030BD7FEA645C1ABFC8
:10244000194610467FEA655C1CBF0B46024650EAFF
:10245000013406BF52EA033591EA030F41F400212B
:1024600030BD00BF90F0000F04BF0021704730B5B1
:102470004FF4806404F132044FF000054FF0000186
:1024800050E700BF90F0000F04BF0021704730B547
:102490004FF4806404F1320410F0004548BF40421C
:1024A0004FF000013EE700BF42004FEAE2014FEA71
:1024B00031014FEA02701FBF12F07F4393F07F4F4C
:1024C00081F06051704792F0000F14BF93F07F4F7E
:1024D000704730B54FF4607401F0004521F00041C1
:1024E00020E700BF50EA010208BF704730B54FF047
:1024F00000050AE050EA010208BF704730B511F04C
:10250000004502D5404261EB41014FF4806404F183
:1025100032045FEA915C3FF4DCAE4FF003025FEA05
:10252000DC0C18BF03325FEADC0C18BF033202EB8D
:10253000DC02C2F1200300FA03FC20FA02F001FAE7
:1025400003FE40EA0E0021FA02F11444C1E600BF86
:1025500070B54FF0FF0C4CF4E06C1CEA11541DBF39
:102560001CEA135594EA0C0F95EA0C0F00F0DEF804
:102570002C4481EA030621EA4C5123EA4C5350EAE9
:10258000013518BF52EA033541F4801143F480133A
:1025900038D0A0FB02CE4FF00005E1FB02E506F0CB
:1025A0000042E0FB03E54FF00006E1FB03569CF020
:1025B000000F18BF4EF0010EA4F1FF04B6F5007F26
:1025C00064F5407404D25FEA4E0E6D4146EB060698
:1025D00042EAC62141EA55514FEAC52040EA5E5021
:1025E0004FEACE2EB4F1FD0C88BFBCF5E06F1ED8CB
:1025F000BEF1004F08BF5FEA500E50F1000041EB02
:10260000045170BD06F0004646EA010140EA0200AE
:1026100081EA0301B4EB5C04C2BFD4EB0C0541EAD0
:10262000045170BD41F480114FF0000E013C00F3E5
:10263000AB8014F1360FDEBF002001F0004170BD09
:10264000C4F10004203C35DA0C341BDC04F1140422
:10265000C4F1200500FA05F320FA04F001FA05F2AE
:1026600040EA020001F0004221F0004110EBD3707B
:1026700021FA04F642EB06015EEA430E08BF20EAA7
:10268000D37070BDC4F10C04C4F1200500FA04F34A
:1026900020FA05F001FA04F240EA020001F00041DC
:1026A00010EBD37041F100015EEA430E08BF20EA4F
:1026B000D37070BDC4F1200500FA05F24EEA020E97
:1026C00020FA04F301FA05F243EA020321FA04F0C6
:1026D00001F0004121FA04F220EA020000EBD3707D
:1026E0005EEA430E08BF20EAD37070BD94F0000F7D
:1026F0000FD101F00046400041EB010111F4801FB1
:1027000008BF013CF7D041EA060195F0000F18BF61
:10271000704703F00046520043EB030313F4801F9D
:1027200008BF013DF7D043EA0603704794EA0C0F57
:102730000CEA135518BF95EA0C0F0CD050EA41066D
:1027400018BF52EA4306D1D181EA030101F00041EA
:102750004FF0000070BD50EA410606BF1046194612
:1027600052EA430619D094EA0C0F02D150EA01361E
:1027700013D195EA0C0F05D152EA03361CBF10465F
:1027800019460AD181EA030101F0004141F0FE41FE
:1027900041F470014FF0000070BD41F0FE4141F482
:1027A000780170BD70B54FF0FF0C4CF4E06C1CEA82
:1027B00011541DBF1CEA135594EA0C0F95EA0C0F37
:1027C00000F0A7F8A4EB050481EA030E52EA0335F2
:1027D0004FEA013100F088804FEA03334FF0805513
:1027E00045EA131343EA12634FEA022245EA111540
:1027F00045EA10654FEA00260EF000419D4208BFF1
:10280000964244F1FD0404F5407402D25B084FEA9D
:102810003202B61A65EB03055B084FEA32024FF449
:1028200080104FF4002CB6EB020E75EB030E22BFA6
:10283000B61A754640EA0C005B084FEA3202B6EB66
:10284000020E75EB030E22BFB61A754640EA5C0015
:102850005B084FEA3202B6EB020E75EB030E22BFA5
:10286000B61A754640EA9C005B084FEA3202B6EBA6
:10287000020E75EB030E22BFB61A754640EADC0065
:1028800055EA060E18D04FEA051545EA16754FEAC7
:1028900006164FEAC30343EA52734FEAC2025FEAE5
:1028A0001C1CC0D111F4801F0BD141EA00014FF074
:1028B00000004FF0004CB6E711F4801F04BF014345
:1028C0000020B4F1FD0C88BFBCF5E06F3FF6AFAE61
:1028D000B5EB030C04BFB6EB020C5FEA500C50F1F1
:1028E000000041EB045170BD0EF0004E4EEA113174
:1028F00014EB5C04C2BFD4EB0C0541EA045170BD7B
:1029000041F480114FF0000E013C90E645EA060EBE
:102910008DE60CEA135594EA0C0F08BF95EA0C0FEC
:102920003FF43BAF94EA0C0F0AD150EA01347FF434
:1029300034AF95EA0C0F7FF425AF104619462CE70B
:1029400095EA0C0F06D152EA03353FF4FDAE10466E
:10295000194622E750EA410618BF52EA43067FF4BF
:10296000C5AE50EA41047FF40DAF52EA43057FF44F
:10297000EBAE12E74FEA4102B2F1E04324BFB3F5F8
:10298000001CDCF1FE5C0DD901F0004C4FEAC002E6
:102990004CEA5070B2F1004F40EB830008BF20F0CA
:1029A0000100704711F0804F21D113F13872BCBF84
:1029B00001F00040704741F480114FEA5252C2F1D9
:1029C0001802C2F1200C10FA0CF320FA02F018BF22
:1029D00040F001004FEAC1234FEAD32303FA0CFC75
:1029E00040EA0C0023FA02F34FEA4303CCE77FEA04
:1029F000625307D150EA01331EBF4FF0FE4040F44E
:102A00004000704701F0004040F0FE4040F40000FC
:102A1000704700BF80F0004002E000BF81F000413D
:102A200042001FBF5FEA410392EA030F7FEA226C74
:102A30007FEA236C6AD04FEA1262D2EB1363C1BF04
:102A4000D218414048404140B8BF5B42192B88BF73
:102A5000704710F0004F40F4000020F07F4018BF96
:102A6000404211F0004F41F4000121F07F4118BFB6
:102A7000494292EA030F3FD0A2F1010241FA03FC5E
:102A800010EB0C00C3F1200301FA03F100F0004346
:102A900002D5494260EB4000B0F5000F13D3B0F10E
:102AA000807F06D340084FEA310102F10102FE2A7D
:102AB00051D2B1F1004F40EBC25008BF20F00100ED
:102AC00040EA03007047490040EB000010F4000F9B
:102AD000A2F10102EDD1B0FA80FCACF1080CB2EB2E
:102AE0000C0200FA0CF0AABF00EBC250524218438D
:102AF000BCBFD0401843704792F0000F81F4000132
:102B000006BF80F400000132013BB5E74FEA410304
:102B10007FEA226C18BF7FEA236C21D092EA030F70
:102B200004D092F0000F08BF0846704790EA010FEA
:102B30001CBF0020704712F07F4F04D1400028BF17
:102B400040F00040704712F100723CBF00F50000F9
:102B5000704700F0004343F0FE4040F4000070472F
:102B60007FEA226216BF08467FEA236301464202DB
:102B700006BF5FEA412390EA010F40F480007047EE
:102B80004FF0000304E000BF10F0004348BF404294
:102B90005FEA000C08BF704743F0964301464FF0D0
:102BA00000001CE050EA010208BF70474FF000032C
:102BB0000AE000BF50EA010208BF704711F000436D
:102BC00002D5404261EB41015FEA010C02BF84463D
:102BD0000146002043F0B64308BFA3F18053A3F59C
:102BE0000003BCFA8CF2083AA3EBC25310DB01FAE3
:102BF00002FC634400FA02FCC2F12002BCF1004F67
:102C000020FA02F243EB020008BF20F001007047F7
:102C100002F1200201FA02FCC2F1200250EA4C004B
:102C200021FA02F243EB020008BF20EADC70704791
:102C3000844641EA000313F0030349D1403A23D309
:102C40000B6803604B6843608B688360CB68C3602C
:102C50000B6903614B6943618B698361CB69C36114
:102C60000B6A03624B6A43628B6A8362CB6AC362FC
:102C70000B6B03634B6B43638B6B8363CB6BC363E4
:102C800040304031403ADBD230320BD30B68036026
:102C90004B6843608B688360CB68C3601030103131
:102CA000103AF3D20C3205D351F8043B40F8043B00
:102CB000043AF9D2043208D0D2071CBF11F8013B04
:102CC00000F8013B01D30B8803806046704700BFCA
:102CD000082A13D38B07B1D010F00303AED0C3F191
:102CE0000403D21ADB071CBF11F8013B00F8013BBB
:102CF000A4D331F8023B20F8023B9FE7043AD9D332
:102D0000013A11F8013B00F8013BF9D20B7803704E
:102D10004B7843708B7883706046704770B4860739
:102D200046D0541E002A41D0CAB2034602E014F134
:102D3000FF343BD303F8012B9D07F8D1032C2ED988
:102D4000CDB245EA05250F2C45EA054519D9264699
:102D500003F11002103E0F2E42F8105C42F80C5C9A
:102D600042F8085C42F8045C02F11002F2D8A4F1C7
:102D7000100222F00F0204F00F041032032C13444F
:102D80000DD91E462246043A032A46F8045BFAD8B7
:102D9000221F22F003020432134404F003042CB176
:102DA000C9B21C4403F8011B9C42FBD170BC7047A4
:102DB00014460346C2E700BFF9070008F9070008F8
:102DC0001D0C0008350E0008000000000000000087
:102DD0000000000000000000F9070008F9070008E3
:102DE000F9070008F907000839090008C9160008A2
:102DF000D9080008950A0008F9070008890A0008A0
:102E0000F9070008F9070008F9070008F9070008A2
:102E1000F9070008F9070008F9070008F907000892
:102E2000F907000805080008F9070008F907000875
:102E3000F9070008F90700086C005B0026011A007A
:102E4000C40110007B02150024030B00AF03160021
:102E50003A040C00CC0417006D050D001B06180089
:102E6000D7060E009A0719005C080F0029095C00BC
:102E7000F0092E00A30A2400550B2900F90B1F00AE
:102E8000800C2A00F50C20006F0D2B00E50D2100B1
:102E9000530E2C00C40E2200420F2D00C20F23003F
:102EA0000010FE0000000EFF5B0138FFA6026AFF63
:102EB000B4039CFF9504CEFF55050000FB053200CE
:102EC0008C0664000B0796007C07C800E107FA0037
:102ED0003B082C018D085E01D70890011A09C20138
:102EE0005809F40190092602C4095802F90AE703B7
:042EF0000010FF7F50
:102EF40000A24A04000000000000000001020304D4
:102F0400060708090C00FF0FFF000000FFFF000088
:102F14000100000000010203040506070900000087
:102F24000100000011C002000000000002000000C7
:102F340000C00100010000000300000001C0020005
:0400000508000000EF
:00000001FF
